S01A00004578657263385F53617261416E64726164652E7372656346
S11300000C9424010C9436010C9436010C943601A2
S11300100C9436010C9436010C9436010C94360180
S11300200C9436010C9436010C9436010C94360170
S11300300C9436010C9436010C9436010C94360160
S11300400C9436010C9436010C9436010C94360150
S11300500C9436010C9438010C9436010C9436013E
S11300600C9436010C943601000000000000005F7F
S113007000000007000700147F147F14242A7F2A3D
S11300801223130864623649552250000503000008
S1130090001C2241000041221C0014083E081408E0
S11300A0083E0808005030000008080808080060EE
S11300B060000020100804023E5149453E00427F82
S11300C0400042615149462141454B311814127F89
S11300D01027454545393C4A494930017109050312
S11300E03649494936064949291E0036360000007A
S11300F0563600000814224100141414141400414C
S11301002214080201510906324979413E7E111137
S1130110117E7F494949363E414141227F41412276
S11301201C7F494949417F090909013E4149497AEE
S11301307F0808087F00417F41002040413F017F44
S1130140081422417F404040407F020C027F7F041C
S113015008107F3E4141413E7F090909063E415155
S1130160215E7F09192946464949493101017F0128
S1130170013F4040403F1F2040201F3F4038403F48
S11301806314081463070870080761514945430064
S11301907F41410002040810200041417F00040215
S11301A00102044040404040000102040020545435
S11301B054787F48444438384444442038444448BC
S11301C07F3854545418087E0901020C5252523E8E
S11301D07F0804047800447D40002040443D007FB3
S11301E01028440000417F40007C041804787C08F7
S11301F004047838444444387C141414080814144F
S1130200187C7C080404084854545420043F444097
S1130210203C4040207C1C2040201C3C4030403C82
S113022044281028440C5050503C4464544C44001E
S11302300836410000007F00000041360800100825
S1130240081008000000000011241FBECFEFD8E002
S1130250DEBFCDBF22E0A0E0B1E001C01D92AD3F02
S1130260B207E1F70E9488010C945D030C9400002E
S11302701F920F920FB60F9211242F938F939F9377
S113028080917800909179009695879596958795B9
S113029087BD87B524E6829FC00111249093000195
S11302A09F918F912F910F900FBE0F901F901895D3
S11302B0AC01FB0180E38083818332969A01ADEC2B
S11302C0BCEC0E944E0396958795969587959695D6
S11302D087959C01220F331F880F991F880F991F40
S11302E0880F991F820F931F9A01281B390BC9018C
S11302F0805D82939A010E944E03AC015695479506
S1130300569547955695479541155105B9F6089563
S11303108FEF84B98AB917B88EEF88B983E884BDA2
S113032085E085BD17BC80E480937C008FEE8093CC
S11303307A0010927B008EE380937E0078940E9472
S1130340E3010E942402809100016BEF72E0082E09
S1130350000C990B0E9458016AE084E10E94230377
S113036064E08BEF92E00E9410030E9428032FEFB9
S113037083ED90E3215080409040E1F700C00000FD
S1130380E0CF2998662311F02B9A15C02B9813C03F
S1130390AC01022E02C0559547950A94E2F740FF3E
S11303A002C02C9A01C02C982D9A2D982150310905
S11303B078F7299A089527E030E090E0E9CF60E0EB
S11303C00E94C1010895CF93DF93219A229A239A20
S11303D0249A259A2A9A299A83EC99E00197F1F7AD
S11303E000C000002A988BE594E40197F1F700C05F
S11303F000002A9A299881E20E94DF0183E10E9489
S1130400DF0186E00E94DF0182EC0E94DF0180E2CE
S11304100E94DF0189E00E94DF0180E80E94DF0181
S113042080E40E94DF01C8EFD1E061E080E00E9437
S1130430C1012197D1F788E00E94DF018CE00E947E
S1130440DF01DF91CF91089580E80E94DF0180E40D
S11304500E94DF011092F9021092FA02E1E0F1E049
S113046089EF92E01192E817F907E1F70895262F32
S113047026952695269590E034E5239F800D911DC1
S11304801124442379F0FC01EF5FFE4F677081E093
S113049090E002C0880F991F6A95E2F79081892B3A
S11304A080830895FC01EF5FFE4F677081E090E068
S11304B002C0880F991F6A95E2F78095908189237D
S11304C0808308955F926F927F928F929F92AF92F2
S11304D0BF92CF92DF92EF92FF920F931F93CF932D
S11304E0DF93562E262F30E04901880C991C880C86
S11304F0991C820E931E181419040CF05DC0890116
S1130500000F111F000F111F000F111F021B130BEF
S1130510612CA82EB12CC50180975C01AA0CBB1CD0
S1130520AA0CBB1CA80EB91E0F2EFAEFCF2EF2E0B8
S1130530DF2EF02D0F2EF9EFEF2EF2E0FF2EF02D2F
S11305402DC0FE01249130E0872D652D0E944203C9
S113055002C0359527958A95E2F720FF0AC0F60177
S11305606081670DF701808141E0860D0E943702AA
S113057009C0F6016081670DF701808140E0860DB6
S11305800E9437027394872D90E080179107CCF274
S11305906394862D90E08815990574F4101611065D
S11305A0BCF7862D652D0E944203E501C80FD11DBD
S11305B0C859DF4F712CC5CF8091F90291E0980F93
S11305C0852D880F880F850D890F843518F4809345
S11305D0F9020EC01092F902EAEFF2E0808191E094
S11305E0980F852D880F880F880F8519890F8083B0
S11305F08091FA02803320F01092F9021092FA02EC
S1130600DF91CF911F910F91FF90EF90DF90CF90EA
S1130610BF90AF909F908F907F906F905F90089560
S11306201F93CF93DF93EC018881882341F0162F29
S11306302196612F0E94620289918111FACFDF9184
S1130640CF911F9108958093F9026093FA0208955F
S11306500F931F93CF93DF9380E80E94DF0180E420
S11306600E94DF01C1E0D1E009EF12E061E089916D
S11306700E94C101C017D107C9F7DF91CF911F9123
S11306800F910895991B79E004C0991F961708F0FB
S1130690961B881F7A95C9F780950895A29FB0018B
S11306A0B39FC001A39F700D811D1124911DB29FA2
S11106B0700D811D1124911D0895F894FFCF43
S9030000FC
