:100000000C9434000C9449000C9449000C94490061
:100010000C9449000C9449000C9449000C9449003C
:100020000C9449000C9449000C9449000C9449002C
:100030000C9449000C9449000C9449000C9449001C
:100040000C9449000C9449000C9449000C9449000C
:100050000C9449000C9449000C9449000C944900FC
:100060000C9449000C94490011241FBECFEFD8E036
:10007000DEBFCDBF11E0A0E0B1E0E6ECF2E002C0EF
:1000800005900D92A031B107D9F70E944B000C9456
:1000900061010C940000CF93DF93CDB7DEB760977A
:1000A0000FB6F894DEBF0FBECDBF8FEF84B9509866
:1000B000589A88E0E0E0F1E0DE01119601900D929F
:1000C0008A95E1F788E0E8E0F1E0DE011996019019
:1000D0000D928A95E1F720E038E080E001C020E051
:1000E000489903C0489BFECF2F5F2530F9F022309E
:1000F000A1F028F42223D1F02130A9F0F1CF233050
:1001000041F0243069F7831709F4B1C0489996C0CB
:10011000AFC04899D2C080E0E3CF883009F4CBC0AB
:1001200048993AC052C048991EC0DACF489BD7CFF1
:10013000E1E0F0E0EC0FFD1FE80FF11D87FDFA95FF
:10014000908195B98F5F883009F480E02FEF41EE00
:1001500054E0215040405040E1F700C00000489971
:10016000E7CF20E0BDCF815008F487E0E1E0F0E088
:10017000EC0FFD1FE80FF11D87FDFA95908195B9F1
:100180009FEF41EE54E0915040405040E1F700C0F5
:1001900000004899E8CFA4CFE1E0F0E0EC0FFD1FAC
:1001A000E80FF11D87FDFA95908195B98F5F9FEF5C
:1001B00041EE54E0915040405040E1F700C0000053
:1001C000883009F478C04899E7CF815008F488CF87
:1001D000489B86CFE1E0F0E0EC0FFD1FE80FF11D3A
:1001E00087FDFA95908195B981509FEF41EE54E0DB
:1001F000915040405040E1F700C000008F3F09F4AB
:100200006FCF4899E7CF6CCFE9E0F0E0EC0FFD1F2E
:10021000E80FF11D87FDFA95908195B98F5F8830C1
:1002200009F480E09FEF41EE54E09150404050408F
:10023000E1F700C000004899E7CF52CFE1E0F0E0DD
:10024000EC0FFD1FE80FF11D87FDFA95908195B920
:100250008F5F9FEF41EE54E0915040405040E1F7F6
:1002600000C00000381721F04899E8CF01C0832F63
:100270003150313009F438E0815008F431CF489BD7
:100280002FCFE1E0F0E0EC0FFD1FE80FF11D87FD3F
:10029000FA95908195B981509FEF41EE54E09150CD
:1002A00040405040E1F700C000008F3F09F418CFF4
:1002B0004899E7CF15CF87E08BCF898585B981E055
:0602C000B1CFF894FFCF5E
:1002C60001020408102040800103070F1F3F7FFF33
:00000001FF
