S0140000496E746572727570636F65732E737265630D
S11300000C9434000C9440000C943E000C943E007C
S11300100C943E000C943E000C943E000C943E0064
S11300200C943E000C943E000C943E000C943E0054
S11300300C943E000C943E000C943E000C943E0044
S11300400C943E000C943E000C943E000C943E0034
S11300500C943E000C943E000C943E000C943E0024
S11300600C943E000C943E0011241FBECFEFD8E048
S1130070DEBFCDBF0E9469000C9487000C94000081
S11300801F920F9200905F000F9211242F933F93C1
S11300908F939F93EF93FF93CF93DF93CDB7DEB707
S11300A088E290E028E230E0F901308124E023275F
S11300B0FC0120830000DF91CF91FF91EF919F918C
S11300C08F913F912F910F9000925F000F901F909E
S11300D01895CF93DF93CDB7DEB78AE290E0FC01A9
S11300E010828BE290E02FEFFC01208387E290E006
S11300F024E0FC01208389E690E022E0FC012083D7
S11301008DE390E021E0FC0120837894FFCFF89404
S1050110FFCF1B
S9030000FC
