:100000000C942B010C9407030C943B030C94700389
:100010000C9448010C9448010C9448010C94A904D8
:100020000C9448010C9448010C9448010C9448012C
:100030000C9448010C9448010C9448010C9448011C
:100040000C9448010C9448010C947D010C944801D7
:100050000C9448010C9448010C9448010C944801FC
:100060000C9448010C9448017B04820487048D049D
:10007000910497049B04000000000000005F000052
:100080000007000700147F147F14242A7F2A1223FC
:100090001308646236495522500005030000001C15
:1000A0002241000041221C0014083E081408083EAA
:1000B00008080050300000080808080800606000C8
:1000C0000020100804023E5149453E00427F400096
:1000D00042615149462141454B311814127F102786
:1000E000454545393C4A49493001710905033649BE
:1000F000494936064949291E003636000000563661
:100100000000081422410014141414140041221495
:10011000080201510906324979413E7E1111117ED2
:100120007F494949363E414141227F4141221C7F5E
:10013000494949417F090909013E4149497A7F08F6
:1001400008087F00417F41002040413F017F0814A3
:1001500022417F404040407F020C027F7F04081014
:100160007F3E4141413E7F090909063E4151215EE2
:100170007F09192946464949493101017F01013F5B
:100180004040403F1F2040201F3F4038403F631405
:1001900008146307087008076151494543007F410F
:1001A000410002040810200041417F0004020102C6
:1001B0000440404040400001020400205454547860
:1001C0007F484444383844444420384444487F38C5
:1001D00054545418087E0901020C5252523E7F08B2
:1001E00004047800447D40002040443D007F1028F6
:1001F000440000417F40007C041804787C0804041B
:100200007838444444387C14141408081414187CB6
:100210007C080404084854545420043F4440203CC3
:100220004040207C1C2040201C3C4030403C442866
:100230001028440C5050503C4464544C4400083640
:10024000410000007F00000041360800100808103F
:1002500008000000000011241FBECFEFD8E0DEBF71
:10026000CDBF11E0A0E0B1E0E8E8FEE002C00590FB
:100270000D92A03BB107D9F723E0A0EBB1E001C09C
:100280001D92A73BB207E1F70E940C050C944207B0
:100290000C9400008091B203893189F02CF48823FA
:1002A00041F08D3049F00895853261F0813369F075
:1002B000089583E387BD089586E687BD089589E99B
:1002C00087BD08958CEC87BD08958AEF87BD08959A
:1002D0009093C5008093C40088E98093C1008EE0AC
:1002E0008093C2008FEF87B90895E0ECF0E0908131
:1002F00095FFFDCF8093C60008951F920F920FB611
:100300000F9211242F933F934F935F936F937F939B
:100310008F939F93AF93BF93EF93FF938091C6000A
:1003200080538093B30381E08093B0030E94D20591
:1003300061E080E091E00E94BE066AE080E00E94F9
:10034000D10661E08FE091E00E94BE068091B30388
:100350004AE050E064EB73E090E00E94020764E141
:1003600083E20E94D10661E084EB93E00E94BE0626
:100370006EE180E00E94D10661E08BE191E00E9495
:10038000BE0668E280E00E94D10661E080E091E074
:100390000E94BE060E94D6068091B30390E00E94A0
:1003A0007501FF91EF91BF91AF919F918F917F91D7
:1003B0006F915F914F913F912F910F900FBE0F90D2
:1003C0001F901895CF93C82F8C3609F05BC00E9400
:1003D000D20561E080E091E00E94BE0664E180E029
:1003E0000E94D10661E086E291E00E94BE0668E2CA
:1003F00080E00E94D10661E080E091E00E94BE06AC
:100400000E94D6062FEF83ED90E32150804090406C
:10041000E1F700C000000E94D20561E080E091E0B9
:100420000E94BE066AE080E00E94D10661E084E39B
:1004300091E00E94BE0664E183E20E94D1068091B1
:10044000B0034AE050E064EB73E090E00E940207E2
:1004500061E084EB93E00E94BE066EE180E00E94C2
:10046000D10661E08EE391E00E94BE0668E280E082
:100470000E94D10661E080E091E00E94BE060E94E9
:10048000D606C3C0843649F50E94D20561E080E0FB
:1004900091E00E94BE0664E180E00E94D10661E026
:1004A0008CE491E00E94BE0668E280E00E94D106E2
:1004B00061E080E091E00E94BE060E94D6062FEF28
:1004C00083ED90E3215080409040E1F700C00000B0
:1004D0000E94D2050E94D60698C08636B9F50E94C1
:1004E000D20561E080E091E00E94BE066AE080E013
:1004F0000E94D10661E084E391E00E94BE0664E1BF
:1005000083E20E94D1068091B0034AE050E064EBA0
:1005100073E090E00E94020761E084EB93E00E94A8
:10052000BE066EE180E00E94D10661E08BE591E0BD
:100530000E94BE0668E280E00E94D10661E080E091
:1005400091E00E94BE060E94D6065FC08037E1F4AB
:100550000E94D20561E080E091E00E94BE0664E165
:1005600080E00E94D10661E089E691E00E94BE062B
:1005700068E280E00E94D10661E080E091E00E94A4
:10058000BE060E94D60641C0883751F40E94D205AB
:1005900061E088E791E00E94BE060E94D60635C061
:1005A0000E94D20561E080E091E00E94BE066AE010
:1005B00080E00E94D10661E084E391E00E94BE06E3
:1005C00064E183E20E94D1064AE050E064EB73E00C
:1005D0008C2F90E00E94020761E084EB93E00E9480
:1005E000BE066EE180E00E94D10661E08EE391E0FC
:1005F0000E94BE0668E280E00E94D10661E080E0D1
:1006000091E00E94BE060E94D606CF9108951F92E7
:100610000F920FB60F9211242F933F934F935F9336
:100620006F937F938F939F93AF93BF93EF93FF93BA
:100630008091AD03813039F48CE690E00E94E201B4
:100640001092AD0307C084E690E00E94E20181E0D1
:100650008093AD03FF91EF91BF91AF919F918F91E7
:100660007F916F915F914F913F912F910F900FBEAE
:100670000F901F9018951F920F920FB60F92112492
:100680002F933F934F935F936F937F938F939F939A
:10069000AF93BF93EF93FF938091AD03813041F40B
:1006A0008091B00390E00E94E2011092AD0307C078
:1006B00080E790E00E94E20181E08093AD03FF912A
:1006C000EF91BF91AF919F918F917F916F915F91CA
:1006D0004F913F912F910F900FBE0F901F90189543
:1006E0001F920F920FB60F9211240F931F932F9307
:1006F0003F934F935F936F937F938F939F93AF93AA
:10070000BF93CF93DF93EF93FF938091B00181115B
:10071000CCC08091B0039091B303891305C088E7E2
:1007200090E00E94E201BBC0813009F04EC0009110
:10073000AF03002E000C110BC091B2030C2E000C65
:10074000DD0B0E94D20561E088E791E00E94BE06C1
:100750006AE080E00E94D1068091B0034AE050E058
:1007600064EB73E090E00E94020761E084EB93E0A9
:100770000E94BE066AE089E10E94D1064AE050E08C
:1007800064EB73E0C8010E94020761E084EB93E030
:100790000E94BE066AE083E20E94D1064AE050E071
:1007A00064EB73E0CE010E94020761E084EB93E00A
:1007B0000E94BE060E94D6062FEF83E294EF2150DE
:1007C00080409040E1F700C000008091B00382308B
:1007D00009F04EC00091AF03002E000C110BC09128
:1007E000B2030C2E000CDD0B0E94D20561E088E7FD
:1007F00091E00E94BE066AE080E00E94D1068091EE
:10080000B0034AE050E064EB73E090E00E9402071E
:1008100061E084EB93E00E94BE066AE089E10E94F9
:10082000D1064AE050E064EB73E0C8010E94020781
:1008300061E084EB93E00E94BE066AE083E20E94DE
:10084000D1064AE050E064EB73E0CE010E9402075B
:1008500061E084EB93E00E94BE060E94D6062FEF73
:1008600083E294EF215080409040E1F700C0000007
:1008700086E690E00E94E2018091B0038F5F809352
:10088000B0032FEF83ED90E3215080409040E1F7DB
:1008900000C000008091B00390E00E94E2018091CE
:1008A000B0018F5F8093B00102C01092B001FF9140
:1008B000EF91DF91CF91BF91AF919F918F917F91F8
:1008C0006F915F914F913F912F911F910F910F90D9
:1008D0000FBE0F901F901895E091AF038E2FEE0F73
:1008E000990BAA0BBB0B8730910590F5FC01EC5CD2
:1008F000FF4F0C94FC0688B18F7388B98BB18C7F45
:100900008BB90895469A8BB18C7F8BB9089588B1C5
:100910008F7388B9589A59980895469A589A599851
:10092000089588B18F7388B95898599A0895469A4E
:100930005898599A089588B18F7388B98BB183609C
:100940008BB981E08093B60388E790E00E94E201D2
:1009500008951F920F920FB60F9211242F933F9379
:100960004F935F936F937F938F939F93AF93BF93B7
:10097000EF93FF938091AD038130E9F18091B6034D
:100980008130C9F18091AB039091AC038C599F4F9A
:10099000883E23E092072CF49093AC038093AB0342
:1009A00009C01092AC031092AB038091AE038F5F2D
:1009B0008093AE038091AE038C334CF01092AE0363
:1009C0008091B2038F5F8093B2030E944A018091AD
:1009D000B2038C3384F01092B2038091AF038F5F27
:1009E0008093AF0317BC8FE39CE90197F1F700C038
:1009F00000000E946C04FF91EF91BF91AF919F9115
:100A00008F917F916F915F914F913F912F910F90B7
:100A10000FBE0F901F9018958EEF84B9C1E0C5B935
:100A200083EF8AB98CE08BB91092AC031092AB03C0
:100A30001092AE031092B2031092AF03C093AD03B5
:100A40000E946C0487E690E00E94680183E884BD00
:100A500085E085BD17BC8AE08093690093E09DBB6B
:100A6000C0936800C0936B0082E08093B0009093C5
:100A7000B10099EF9093B3008093700078940E9436
:100A800091050E94D20561E080E091E00E94BE06DF
:100A90006AE080E00E94D10661E087E891E00E9470
:100AA000BE0664E180E00E94D10661E086E991E043
:100AB0000E94BE066EE180E00E94D10661E083EAFA
:100AC00091E00E94BE0668E280E00E94D10661E0EB
:100AD00080E091E00E94BE060E94D606FFCF2998D2
:100AE000662311F02B9A15C02B9813C0AC01022E6F
:100AF00002C0559547950A94E2F740FF02C02C9A30
:100B000001C02C982D9A2D982150310978F7299AF7
:100B1000089527E030E090E0E9CF60E00E946F05A3
:100B20000895CF93DF93219A229A239A249A259AA3
:100B30002A9A299A83EC99E00197F1F700C0000006
:100B40002A988BE594E40197F1F700C000002A9AF7
:100B5000299881E20E948D0583E10E948D0586E03F
:100B60000E948D0582EC0E948D0580E20E948D0519
:100B700089E00E948D0580E80E948D0580E40E9436
:100B80008D05C8EFD1E061E080E00E946F052197FC
:100B9000D1F788E00E948D058CE00E948D05DF91E1
:100BA000CF91089580E80E948D0580E40E948D0514
:100BB0001092A9031092AA03E1EBF1E089EA93E015
:100BC0001192E817F907E1F70895262F2695269543
:100BD000269590E034E5239F800D911D1124442338
:100BE00079F0FC01EF54FE4F677081E090E002C0A5
:100BF000880F991F6A95E2F79081892B8083089569
:100C0000FC01EF54FE4F677081E090E002C0880F56
:100C1000991F6A95E2F780959081892380830895D2
:100C20005F926F927F928F929F92AF92BF92CF927C
:100C3000DF92EF92FF920F931F93CF93DF93562E85
:100C4000262F30E04901880C991C880C991C820ED3
:100C5000931E181419040CF05DC08901000F111FB8
:100C6000000F111F000F111F021B130B612CA82E68
:100C7000B12CC50180975C01AA0CBB1CAA0CBB1C43
:100C8000A80EB91E0F2EFAEACF2EF3E0DF2EF02DBC
:100C90000F2EF9EAEF2EF3E0FF2EF02D2DC0FE010E
:100CA000249130E0872D652D0E94F00602C0359515
:100CB00027958A95E2F720FF0AC0F6016081670D4B
:100CC000F701808141E0860D0E94E50509C0F6012B
:100CD0006081670DF701808140E0860D0E94E50587
:100CE0007394872D90E080179107CCF26394862D42
:100CF00090E08815990574F410161106BCF7862D3E
:100D0000652D0E94F006E501C80FD11DCA58DF4FBE
:100D1000712CC5CF8091A90391E0980F852D880F84
:100D2000880F850D890F843518F48093A9030EC0B0
:100D30001092A903EAEAF3E0808191E0980F852DF3
:100D4000880F880F880F8519890F80838091AA03E7
:100D5000803320F01092A9031092AA03DF91CF9163
:100D60001F910F91FF90EF90DF90CF90BF90AF90C9
:100D70009F908F907F906F905F9008951F93CF9377
:100D8000DF93EC018881882341F0162F2196612F93
:100D90000E94100689918111FACFDF91CF911F91A6
:100DA00008958093A9036093AA0308950F931F9356
:100DB000CF93DF9380E80E948D0580E40E948D052B
:100DC000C1EBD1E009EA13E061E089910E946F056F
:100DD000C017D107C9F7DF91CF911F910F910895E7
:100DE000991B79E004C0991F961708F0961B881F7D
:100DF0007A95C9F780950895EE0FFF1F0590F4913D
:100E0000E02D09944532510520F4423010F00C9445
:100E10000D07FB011082CB010895BB274A3031F446
:100E2000992322F4BDE2909581959F4F0C94190768
:100E3000BB27FB015527AA27880F991FAA1FA417B4
:100E400010F0A41B83955051B9F7A05DAA3308F0A8
:100E5000A95DA193009779F7B111B1931192CB01DC
:100E60000C943207DC01FC01672F71917723E1F7C5
:100E7000329704C07C916D9370836291AE17BF0767
:080E8000C8F30895F894FFCFB8
:100E88002D2D2D2D2D2D2D2D2D2D2D2D2D2D0020C4
:100E98002020546F74616C20646500202020546108
:100EA800726566617300202042656D2D76696E64F7
:100EB8006F21210020202054617265666100204561
:100EC8006D20416E64616D656E746F0020446573BA
:100ED8006C6967616E646F2E2E2E00202046696E45
:100EE800616C697A61646121005461726566612090
:100EF80050617573616461002054207C20687273AE
:100F0800207C206D696E004469676974652071757D
:100F1800616E746173002074617265666173207616
:100F28006169002020207265616C697A6172000035
:00000001FF
