:100000000C9424010C94D5030C9409040C943E0424
:100010000C9441010C9441010C9441010C94410158
:100020000C9441010C9441010C9441010C94410148
:100030000C9441010C9441010C9443010C94410136
:100040000C9441010C9441010C94ED010C9441017C
:100050000C9441010C9441010C9441010C94410118
:100060000C9441010C944101000000000000005F6D
:1000700000000007000700147F147F14242A7F2A41
:10008000122313086462364955225000050300000C
:10009000001C2241000041221C0014083E081408E4
:1000A000083E0808005030000008080808080060F2
:1000B00060000020100804023E5149453E00427F86
:1000C000400042615149462141454B311814127F8D
:1000D0001027454545393C4A494930017109050316
:1000E0003649494936064949291E0036360000007E
:1000F0005636000008142241001414141414004150
:100100002214080201510906324979413E7E11113B
:10011000117E7F494949363E414141227F4141227A
:100120001C7F494949417F090909013E4149497AF2
:100130007F0808087F00417F41002040413F017F48
:10014000081422417F404040407F020C027F7F0420
:1001500008107F3E4141413E7F090909063E415159
:10016000215E7F09192946464949493101017F012C
:10017000013F4040403F1F2040201F3F4038403F4C
:100180006314081463070870080761514945430068
:100190007F41410002040810200041417F00040219
:1001A0000102044040404040000102040020545439
:1001B00054787F48444438384444442038444448C0
:1001C0007F3854545418087E0901020C5252523E92
:1001D0007F0804047800447D40002040443D007FB7
:1001E0001028440000417F40007C041804787C08FB
:1001F00004047838444444387C1414140808141453
:10020000187C7C080404084854545420043F44409B
:10021000203C4040207C1C2040201C3C4030403C86
:1002200044281028440C5050503C4464544C440022
:100230000836410000007F00000041360800100829
:10024000081008000000000011241FBECFEFD8E006
:10025000DEBFCDBF11E0A0E0B1E0EAEBFCE002C000
:1002600005900D92A03BB107D9F723E0A0EBB1E0D8
:1002700001C01D92A63BB207E1F70E9452020C9406
:100280005B060C9400001F920F920FB60F92112480
:100290002F938F939F938091AD03813009F480C099
:1002A0008091AB039091AC0301969093AC03809343
:1002B000AB038091AF03811105C088B18F7388B9FA
:1002C0005C982E988091AB039091AC03883E93404C
:1002D00009F066C01092AC031092AB038091AE039C
:1002E0008F5F8C3319F08093AE035AC01092AE0327
:1002F0008091B2038F5F8093B203853019F48CE054
:1003000087BD4EC08F3019F480E487BD49C08E315F
:1003100019F480E887BD44C08D3219F480EC87BDA4
:100320003FC08C33E9F58AEF87BD1092B20380910C
:10033000AF038F5F8093AF03813021F4469A5C98BE
:100340002E98409A8091AF03823031F488B18F7338
:1003500088B95C9A2E98419A8091AF03833021F43A
:10036000469A5C9A2E98429A8091AF03843031F479
:1003700088B18F7388B95C982E9A439A8091AF03A5
:10038000853031F488B18F7388B95C9A2E9A449A7B
:100390008091AF03863021F4469A5C982E9A459A54
:1003A0009F918F912F910F900FBE0F901F901895D6
:1003B0009093C5008093C40088E98093C1008EE0CB
:1003C0008093C2008FEF87B90895E0ECF0E0908150
:1003D00095FFFDCF8093C60008951F920F920FB630
:1003E0000F9211242F933F934F935F936F937F93BB
:1003F0008F939F93AF93BF93EF93FF938091C6002A
:1004000080538093B30381E08093B0030E94F10492
:1004100061E080E091E00E94DD056AE080E00E94FA
:10042000F00561E08FE091E00E94DD058091B3036B
:100430004AE050E064EB73E090E00E941B0664E148
:1004400083E20E94F00561E084EB93E00E94DD0509
:100450006EE180E00E94F00561E08BE191E00E9496
:10046000DD0568E280E00E94F00561E080E091E057
:100470000E94DD050E94F5058091B30390E00E9483
:10048000E501FF91EF91BF91AF919F918F917F9186
:100490006F915F914F913F912F910F900FBE0F90F1
:1004A0001F9018958EEF84B9C1E0C5B980EF8AB965
:1004B0008CE08BB91092AC031092AB031092AE0398
:1004C0001092B2031092AF03C093AD0387E690E0A1
:1004D0000E94D80183E884BD85E085BD17BC8AE011
:1004E0008093690093E09DBBC0936800C0936B004C
:1004F00082E084BD95BD99EF97BD80936E0078949E
:100500000E94B0040E94F10461E080E091E00E944A
:10051000DD056AE080E00E94F00561E086E291E09E
:100520000E94DD0564E180E00E94F00561E085E362
:1005300091E00E94DD056EE180E00E94F00561E03F
:1005400082E491E00E94DD0568E280E00E94F0050F
:1005500061E080E091E00E94DD050E94F505FFCF9B
:10056000CF93C82F8C3609F05BC00E94F10461E084
:1005700080E091E00E94DD0564E180E00E94F005EA
:1005800061E08EE491E00E94DD0568E280E00E9477
:10059000F00561E080E091E00E94DD050E94F50534
:1005A0002FEF83ED90E3215080409040E1F700C0B1
:1005B00000000E94F10461E080E091E00E94DD050E
:1005C0006AE080E00E94F00561E08CE591E00E9425
:1005D000DD0564E183E20E94F0058091B0034AE00A
:1005E00050E064EB73E090E00E941B0661E084EB56
:1005F00093E00E94DD056EE180E00E94F00561E07D
:1006000086E691E00E94DD0568E280E00E94F00548
:1006100061E080E091E00E94DD050E94F505C3C025
:10062000843649F50E94F10461E080E091E00E9487
:10063000DD0564E180E00E94F00561E084E791E07F
:100640000E94DD0568E280E00E94F00561E080E044
:1006500091E00E94DD050E94F5052FEF83ED90E308
:10066000215080409040E1F700C000000E94F1045A
:100670000E94F50598C08636B9F50E94F10461E044
:1006800080E091E00E94DD056AE080E00E94F005D4
:1006900061E08CE591E00E94DD0564E183E20E9467
:1006A000F0058091B0034AE050E064EB73E090E025
:1006B0000E941B0661E084EB93E00E94DD056EE181
:1006C00080E00E94F00561E083E891E00E94DD0592
:1006D00068E280E00E94F00561E080E091E00E9425
:1006E000DD050E94F5055FC08037E1F40E94F1044A
:1006F00061E080E091E00E94DD0564E180E00E941D
:10070000F00561E081E991E00E94DD0568E280E0AA
:100710000E94F00561E080E091E00E94DD050E940A
:10072000F50541C0883751F40E94F10461E080EA88
:1007300091E00E94DD050E94F50535C00E94F1049C
:1007400061E080E091E00E94DD056AE080E00E94C7
:10075000F00561E08CE591E00E94DD0564E183E253
:100760000E94F0054AE050E064EB73E08C2F90E0CB
:100770000E941B0661E084EB93E00E94DD056EE1C0
:1007800080E00E94F00561E086E691E00E94DD05D0
:1007900068E280E00E94F00561E080E091E00E9464
:1007A000DD050E94F505CF9108951F920F920FB6B7
:1007B0000F9211242F933F934F935F936F937F93E7
:1007C0008F939F93AF93BF93EF93FF938091AD036C
:1007D000813039F48CE690E00E94B0021092AD03B3
:1007E00007C084E690E00E94B00281E08093AD03F0
:1007F000FF91EF91BF91AF919F918F917F916F91F9
:100800005F914F913F912F910F900FBE0F901F90CE
:1008100018951F920F920FB60F9211242F933F93AA
:100820004F935F936F937F938F939F93AF93BF93F8
:10083000EF93FF938091AD03813041F48091B00339
:1008400090E00E94B0021092AD0307C080E790E0F4
:100850000E94B00281E08093AD03FF91EF91BF91C0
:10086000AF919F918F917F916F915F914F913F9148
:100870002F910F900FBE0F901F9018951F920F92FF
:100880000FB60F9211242F933F934F935F936F9363
:100890007F938F939F93AF93BF93EF93FF93809139
:1008A000B001811128C09091B0038091B3039813D7
:1008B00005C088E790E00E94B00217C086E690E08D
:1008C0000E94B0028091B0038F5F8093B0032FEF3E
:1008D00083ED90E3215080409040E1F700C000009C
:1008E0008091B00390E00E94B0028091B0018F5FD0
:1008F0008093B00102C01092B001FF91EF91BF91BF
:10090000AF919F918F917F916F915F914F913F91A7
:100910002F910F900FBE0F901F9018952998662366
:1009200011F02B9A15C02B9813C0AC01022E02C0F7
:10093000559547950A94E2F740FF02C02C9A01C0F2
:100940002C982D9A2D982150310978F7299A0895DD
:1009500027E030E090E0E9CF60E00E948E04089547
:10096000CF93DF93219A229A239A249A259A2A9A3E
:10097000299A83EC99E00197F1F700C000002A98CA
:100980008BE594E40197F1F700C000002A9A2998BA
:1009900081E20E94AC0483E10E94AC0486E00E94E4
:1009A000AC0482EC0E94AC0480E20E94AC0489E0BA
:1009B0000E94AC0480E80E94AC0480E40E94AC0475
:1009C000C8EFD1E061E080E00E948E042197D1F76A
:1009D00088E00E94AC048CE00E94AC04DF91CF91CF
:1009E000089580E80E94AC0480E40E94AC04109258
:1009F000A9031092AA03E1EBF1E089EA93E01192D6
:100A0000E817F907E1F70895262F269526952695EC
:100A100090E034E5239F800D911D1124442379F04B
:100A2000FC01EF54FE4F677081E090E002C0880F38
:100A3000991F6A95E2F79081892B80830895FC01C4
:100A4000EF54FE4F677081E090E002C0880F991F5D
:100A50006A95E2F7809590818923808308955F925B
:100A60006F927F928F929F92AF92BF92CF92DF92BE
:100A7000EF92FF920F931F93CF93DF93562E262F63
:100A800030E04901880C991C880C991C820E931E39
:100A9000181419040CF05DC08901000F111F000F1C
:100AA000111F000F111F021B130B612CA82EB12C5C
:100AB000C50180975C01AA0CBB1CAA0CBB1CA80E2C
:100AC000B91E0F2EFAEACF2EF3E0DF2EF02D0F2EF7
:100AD000F9EAEF2EF3E0FF2EF02D2DC0FE01249158
:100AE00030E0872D652D0E940F0602C035952795B1
:100AF0008A95E2F720FF0AC0F6016081670DF701D1
:100B0000808141E0860D0E94040509C0F6016081E4
:100B1000670DF701808140E0860D0E940405739403
:100B2000872D90E080179107CCF26394862D90E09A
:100B30008815990574F410161106BCF7862D652DDD
:100B40000E940F06E501C80FD11DC859DF4F712C57
:100B5000C5CF8091A90391E0980F852D880F880F4C
:100B6000850D890F843518F48093A9030EC0109267
:100B7000A903EAEAF3E0808191E0980F852D880FC0
:100B8000880F880F8519890F80838091AA0380338D
:100B900020F01092A9031092AA03DF91CF911F9128
:100BA0000F91FF90EF90DF90CF90BF90AF909F900C
:100BB0008F907F906F905F9008951F93CF93DF93F6
:100BC000EC018881882341F0162F2196612F0E9425
:100BD0002F0589918111FACFDF91CF911F9108954F
:100BE0008093A9036093AA0308950F931F93CF9353
:100BF000DF9380E80E94AC0480E40E94AC04C1EB67
:100C0000D1E009EA13E061E089910E948E04C017E7
:100C1000D107C9F7DF91CF911F910F910895991BCB
:100C200079E004C0991F961708F0961B881F7A95E3
:100C3000C9F7809508954532510520F4423010F0EF
:100C40000C942606FB011082CB010895BB274A3085
:100C500031F4992322F4BDE2909581959F4F0C9435
:100C60003206BB27FB015527AA27880F991FAA1F09
:100C7000A41710F0A41B83955051B9F7A05DAA33B7
:100C800008F0A95DA193009779F7B111B193119282
:100C9000CB010C944B06DC01FC01672F719177238B
:100CA000E1F7329704C07C916D9370836291AE1727
:0A0CB000BF07C8F30895F894FFCFC2
:100CBA002D2D2D2D2D2D2D2D2D2D2D2D2D2D002094
:100CCA002020546F74616C206465002020205461D8
:100CDA00726566617300446967697465207175613C
:100CEA006E74617300207461726566617320766147
:100CFA0069002020207265616C697A617200202087
:100D0A0042656D2D76696E646F2121002020205482
:100D1A0061726566610020456D20416E64616D6592
:100D2A006E746F00204465736C6967616E646F2E20
:100D3A002E2E00202046696E616C697A61646121F9
:100D4A000054617265666120506175736164610067
:100D5A002054207C20687273207C206D696E00000C
:00000001FF
