:100000000C9424010C9436010C9436010C943601A6
:100010000C9436010C9436010C9436010C94360184
:100020000C9436010C9436010C9436010C94360174
:100030000C9436010C9436010C9436010C94360164
:100040000C9436010C9436010C9436010C94360154
:100050000C9436010C9438010C9436010C94360142
:100060000C9436010C943601000000000000005F83
:1000700000000007000700147F147F14242A7F2A41
:10008000122313086462364955225000050300000C
:10009000001C2241000041221C0014083E081408E4
:1000A000083E0808005030000008080808080060F2
:1000B00060000020100804023E5149453E00427F86
:1000C000400042615149462141454B311814127F8D
:1000D0001027454545393C4A494930017109050316
:1000E0003649494936064949291E0036360000007E
:1000F0005636000008142241001414141414004150
:100100002214080201510906324979413E7E11113B
:10011000117E7F494949363E414141227F4141227A
:100120001C7F494949417F090909013E4149497AF2
:100130007F0808087F00417F41002040413F017F48
:10014000081422417F404040407F020C027F7F0420
:1001500008107F3E4141413E7F090909063E415159
:10016000215E7F09192946464949493101017F012C
:10017000013F4040403F1F2040201F3F4038403F4C
:100180006314081463070870080761514945430068
:100190007F41410002040810200041417F00040219
:1001A0000102044040404040000102040020545439
:1001B00054787F48444438384444442038444448C0
:1001C0007F3854545418087E0901020C5252523E92
:1001D0007F0804047800447D40002040443D007FB7
:1001E0001028440000417F40007C041804787C08FB
:1001F00004047838444444387C1414140808141453
:10020000187C7C080404084854545420043F44409B
:10021000203C4040207C1C2040201C3C4030403C86
:1002200044281028440C5050503C4464544C440022
:100230000836410000007F00000041360800100829
:10024000081008000000000011241FBECFEFD8E006
:10025000DEBFCDBF23E0A0E0B1E001C01D92A03021
:10026000B207E1F70E9480010C9444030C94000053
:100270001F920F920FB60F9211248F939F9380912C
:1002800078009091790090930101809300019F91F3
:100290008F910F900FBE0F901F901895AC01FB012E
:1002A00080E3808381838283838334969A01ADECDB
:1002B000BCEC0E9435039695879596958795969503
:1002C00087959C01220F331F880F991F880F991F54
:1002D000880F991F820F931F9A01281B390BC901A0
:1002E000805D82939A010E943503AC015695479533
:1002F000569547955695479541155105B9F6089578
:100300008FEF84B917B88EEF88B910927C008FEE0A
:1003100080937A0010927B008EE380937E00789425
:100320000E94CF010E9410026CEF72E080910001E8
:10033000909101010E944E0161E08CEF92E00E94D9
:10034000FC020E940F032FEF83ED90E321508040C9
:100350009040E1F700C00000E5CF2998662311F036
:100360002B9A15C02B9813C0AC01022E02C05595D4
:1003700047950A94E2F740FF02C02C9A01C02C98DE
:100380002D9A2D982150310978F7299A089527E060
:1003900030E090E0E9CF60E00E94AD010895CF9396
:1003A000DF93219A229A239A249A259A2A9A299AA3
:1003B00083EC99E00197F1F700C000002A988BE5E3
:1003C00094E40197F1F700C000002A9A299881E28D
:1003D0000E94CB0183E10E94CB0186E00E94CB0109
:1003E00082EC0E94CB0180E20E94CB0189E00E9456
:1003F000CB0180E80E94CB0180E40E94CB01C8EFD2
:10040000D1E061E080E00E94AD012197D1F788E062
:100410000E94CB018CE00E94CB01DF91CF91089527
:1004200080E80E94CB0180E40E94CB011092FA0286
:100430001092FB02E2E0F1E08AEF92E01192E817FD
:10044000F907E1F70895262F26952695269590E041
:1004500034E5239F800D911D1124442379F0FC0184
:10046000EE5FFE4F677081E090E002C0880F991F39
:100470006A95E2F79081892B80830895FC01EE5FF5
:10048000FE4F677081E090E002C0880F991F6A9567
:10049000E2F7809590818923808308955F926F921F
:1004A0007F928F929F92AF92BF92CF92DF92EF9204
:1004B000FF920F931F93CF93DF93562E262F30E09A
:1004C0004901880C991C880C991C820E931E1814E3
:1004D00019040CF05DC08901000F111F000F111FDE
:1004E000000F111F021B130B612CA82EB12CC5018C
:1004F00080975C01AA0CBB1CAA0CBB1CA80EB91EE1
:100500000F2EFBEFCF2EF2E0DF2EF02D0F2EFAEFA5
:10051000EF2EF2E0FF2EF02D2DC0FE01249130E0F1
:10052000872D652D0E94290302C0359527958A9550
:10053000E2F720FF0AC0F6016081670DF7018081B4
:1005400041E0860D0E94230209C0F6016081670D1B
:10055000F701808140E0860D0E9423027394872D6D
:1005600090E080179107CCF26394862D90E0881577
:10057000990574F410161106BCF7862D652D0E949E
:100580002903E501C80FD11DC859DF4F712CC5CF14
:100590008091FA0291E0980F852D880F880F850DC4
:1005A000890F843518F48093FA020EC01092FA0273
:1005B000EBEFF2E0808191E0980F852D880F880F96
:1005C000880F8519890F80838091FB02803320F08A
:1005D0001092FA021092FB02DF91CF911F910F91BE
:1005E000FF90EF90DF90CF90BF90AF909F908F9053
:1005F0007F906F905F9008951F93CF93DF93EC01EE
:100600008881882341F0162F2196612F0E944E0287
:1006100089918111FACFDF91CF911F9108950F93A6
:100620001F93CF93DF9380E80E94CB0180E40E9468
:10063000CB01C2E0D1E00AEF12E061E089910E94B3
:10064000AD01C017D107C9F7DF91CF911F910F916D
:100650000895991B79E004C0991F961708F0961B1E
:10066000881F7A95C9F780950895A29FB001B39F1E
:10067000C001A39F700D811D1124911DB29F700DAB
:0C068000811D1124911D0895F894FFCFF6
:00000001FF
