S01A00004578657263355F53617261416E64726164652E7372656349
S11300000C9434000C94A3000C94B9000C9451008B
S11300100C9451000C9451000C9451000C94510018
S11300200C9451000C9451000C9451000C94510008
S11300300C9451000C9451000C9453000C945100F6
S11300400C9451000C9451000C9451000C945100E8
S11300500C9451000C9451000C9451000C945100D8
S11300600C9451000C94510011241FBECFEFD8E022
S1130070DEBFCDBF11E0A0E0B1E0E6EFF1E002C0E9
S113008005900D92AA30B107D9F721E0AAE0B1E0BA
S113009001C01D92AF30B207E1F70E94D9000C9461
S11300A0F9000C9400001F920F920FB60F921124C6
S11300B02F938F939F93EF93FF9380910C019091D3
S11300C00D010196883E23E0920729F090930D01DB
S11300D080930C012EC010920D0110920C0180919E
S11300E00B01813031F1E0910A010E2E000CFF0B5F
S11300F0E050FF4F808188B9E0910E010E2E000C74
S1130100FF0BE050FF4F808185B980910E0189304B
S113011024F48F5F80930E010CC010920E01809125
S11301200A01893024F48F5F80930A0102C010927F
S11301300A01FF91EF919F918F912F910F900FBE24
S11301400F901F9018951F920F920FB60F921124C3
S11301508F9380910B01813019F410920B0103C02D
S113016081E080930B018F910F900FBE0F901F9031
S113017018951F920F920FB60F9211248F93EF933D
S1130180FF9310920A0110920E018091000188B928
S1130190E0910E010E2E000CFF0BE050FF4F80810A
S11301A085B9FF91EF918F910F900FBE0F901F9023
S11301B018951AB88CE08BB98FEF87B918B884B941
S11301C08AE08093690093E09DBB789482E084BDCB
S11301D095BD99EF97BD80936E0081E080930B01EC
S11301E010920A0110920E0110920D0110920C014E
S10901F0FFCFF894FFCFDD
S10D01F67E306D79335B5F707F7B10
S9030000FC
