S00D000055534152542E7372656388
S11300000C9434000C943E000C943E000C943E007E
S11300100C943E000C943E000C943E000C943E0064
S11300200C943E000C943E000C943E000C943E0054
S11300300C943E000C943E000C943E000C943E0044
S11300400C943E000C943E000C9455000C943E001D
S11300500C943E000C943E000C943E000C943E0024
S11300600C943E000C943E0011241FBECFEFD8E048
S1130070DEBFCDBF0E9484000C948A000C94000063
S11300809093C5008093C40088E98093C1008EE0FA
S11300908093C2008FEF87B90895E0ECF0E090817F
S11300A095FFFDCF8093C60008951F920F920FB65F
S11300B00F9211242F933F934F935F936F937F93EA
S11300C08F939F93AF93BF93EF93FF938091C60059
S11300D08C3619F491E098B903C0843609F418B841
S11300E090E00E944D00FF91EF91BF91AF919F91DD
S11300F08F917F916F915F914F913F912F910F90CD
S11301000FBE0F901F90189587E690E00E94400064
S10B01107894FFCFF894FFCFAF
S9030000FC
