:100000000C9434000C943E000C943E000C943E0082
:100010000C943E000C943E000C943E000C943E0068
:100020000C943E000C943E000C943E000C943E0058
:100030000C943E000C943E000C943E000C943E0048
:100040000C943E000C943E000C943E000C943E0038
:100050000C943E000C943E000C943E000C943E0028
:100060000C943E000C943E0011241FBECFEFD8E04C
:10007000DEBFCDBF0E9440000C9432020C94000001
:1000800080E284B985B960E070E00AE017EDD3E260
:10009000CCE36894BB24B5F80F2EFAE0CF2EF02DF8
:1000A0000F2EF7EDDF2EF02D0F2EF3E2EF2EF02DB9
:1000B0000F2EFCE3FF2EF02D0CC080E090E0EFE966
:1000C000FFE03197F1F700C000000196681779074B
:1000D000B1F715B8603271055CF48FE99FE00197C4
:1000E000F1F700C000006F5F7F4F60327105A9F724
:1000F00020E030E040E85FE3602F712F8D2F9C2FD0
:100100000E9415018823E4F42C2D3D2D4E2D5F2DEA
:10011000602F712F8D2F9C2F0E94A900062F172F63
:10012000D82FC92F20E030E040E052E40E94C50102
:100130000E941A01B5B8161617060CF4BECFC9CF27
:10014000B5B80C2D1D2DDE2DCF2D60E070E0C1CF98
:100150005058BB27AA270E94C0000C948B010E9414
:100160007D0138F00E94840120F039F49F3F19F49A
:1001700026F40C947A010EF4E095E7FB0C947401DC
:10018000E92F0E949C0158F3BA176207730784078E
:10019000950720F079F4A6F50C94BE010EF4E095D5
:1001A0000B2EBA2FA02D0B01B90190010C01CA0131
:1001B000A0011124FF27591B99F0593F50F4503EDC
:1001C00068F11A16F040A22F232F342F4427585FCE
:1001D000F3CF469537952795A795F0405395C9F7E6
:1001E0007EF41F16BA0B620B730B840BBAF091509E
:1001F000A1F0FF0FBB1F661F771F881FC2F70EC03D
:10020000BA0F621F731F841F48F48795779567950F
:10021000B795F7959E3F08F0B0CF9395880F08F0FB
:100220009927EE0F9795879508950E94500108F43D
:1002300081E008950E9421016894B1110C94BF01DE
:1002400008950E94A40188F09F5798F0B92F99272C
:10025000B751B0F0E1F0660F771F881F991F1AF0B1
:10026000BA95C9F714C0B13091F00E94BE01B1E057
:1002700008950C94BE01672F782F8827B85F39F056
:10028000B93FCCF3869577956795B395D9F73EF44A
:1002900090958095709561957F4F8F4F9F4F0895F2
:1002A000990F0008550FAA0BE0E8FEEF1616170687
:1002B000E807F907C0F012161306E407F50798F0EF
:1002C000621B730B840B950B39F40A2661F0232B08
:1002D000242B252B21F408950A2609F4A140A69584
:1002E0008FEF811D811D089597F99F6780E870E069
:1002F00060E008959FEF80EC089500240A9416169C
:10030000170618060906089500240A941216130603
:10031000140605060895092E0394000C11F4882391
:1003200052F0BB0F40F4BF2B11F460FF04C06F5FAD
:100330007F4F8F4F9F4F089557FD9058440F551F83
:1003400059F05F3F71F04795880F97FB991F61F057
:100350009F3F79F087950895121613061406551FCE
:10036000F2CF4695F1DF08C0161617061806991F3A
:10037000F1CF86957105610508940895E894BB272F
:1003800066277727CB0197F908950E94D8010C942E
:100390008B010E947D0138F00E94840120F095239A
:1003A00011F00C9474010C947A0111240C94BF0187
:1003B0000E949C0170F3959FC1F3950F50E0551F6B
:1003C000629FF001729FBB27F00DB11D639FAA27AA
:1003D000F00DB11DAA1F649F6627B00DA11D661FF9
:1003E000829F2227B00DA11D621F739FB00DA11D1A
:1003F000621F839FA00D611D221F749F3327A00DD4
:10040000611D231F849F600D211D822F762F6A2F6F
:1004100011249F5750409AF0F1F088234AF0EE0FD4
:10042000FF1FBB1F661F771F881F91505040A9F701
:100430009E3F510580F00C9474010C94BF015F3F06
:10044000E4F3983ED4F3869577956795B795F7953D
:10045000E7959F5FC1F7FE2B880F911D96958795B5
:0804600097F90895F894FFCF0D
:00000001FF
