S01A00004578657263365F53617261416E64726164652E7372656348
S11300000C9434000C9453000C9484000C94510010
S11300100C9451000C9451000C9451000C94510018
S11300200C9451000C9451000C9451000C94510008
S11300300C9451000C9451000C9451000C945100F8
S11300400C9451000C9451000C9451000C945100E8
S11300500C9451000C9451000C9451000C945100D8
S11300600C9451000C94510011241FBECFEFD8E022
S1130070DEBFCDBF11E0A0E0B1E0E6E3F2E002C0F4
S113008005900D92AA30B107D9F721E0AAE0B1E0BA
S113009001C01D92AD30B207E1F70E94B7000C9485
S11300A019010C9400001F920F920FB60F921124A5
S11300B05F936F937F938F939F93AF93BF9380913D
S11300C00B018F3574F48B5F80930B01082E000CA9
S11300D0990B982F80E064E670E00E94F10067BD00
S11300E007C08F3529F483E680930B018DEF87BD1C
S11300F0BF91AF919F918F917F916F915F910F907D
S11301000FBE0F901F9018951F920F920FB60F926B
S113011011245F936F937F938F939F93AF93BF93B8
S113012080910B01181684F4833681F085508093F6
S11301300B01082E000C990B982F80E064E670E008
S11301400E94F10067BD07C0833629F48FE58093D0
S11301500B0183EF87BDBF91AF919F918F917F91E9
S11301606F915F910F900FBE0F901F90189583EFC2
S11301708AB98CE08BB98FEF87B984B98AE0809310
S1130180690083E08DBB789483E884BD85E085BDF8
S113019017BC10920B0137E680910B018302E12D0D
S11301A01124E595E59587FDE395E0930A012E2F4B
S11301B0220F922F990F990F920F891B80930C0194
S11301C00E2E000CFF0BE050FF4F808188B9E091A8
S11301D00C010E2E000CFF0BE050FF4F808185B9FF
S11301E0DBCF97FB072E16F4009407D077FD09D0D8
S11301F00E94050107FC05D03EF4909581959F4F20
S11302000895709561957F4F0895AA1BBB1B51E11A
S113021007C0AA1FBB1FA617B70710F0A61BB70B72
S1130220881F991F5A95A9F780959095BC01CD0117
S10902300895F894FFCFCD
S10D02367E306D79335B5F707F7BCF
S9030000FC
