:100000000C9434000C943E000C943E000C943E0082
:100010000C943E000C943E000C943E000C943E0068
:100020000C943E000C943E000C943E000C943E0058
:100030000C943E000C943E000C943E000C943E0048
:100040000C9440000C943E000C943E000C943E0036
:100050000C943E000C943E000C943E000C943E0028
:100060000C943E000C943E0011241FBECFEFD8E04C
:10007000DEBFCDBF0E9469000C9483000C94000089
:100080001F920F9200905F000F9211242F933F93C5
:100090008F939F93EF93FF93CF93DF93CDB7DEB70B
:1000A00085E290E025E230E0F901308120E223276B
:1000B000FC0120830000DF91CF91FF91EF919F9190
:1000C0008F913F912F910F9000925F000F901F90A2
:1000D0001895CF93DF93CDB7DEB784E290E020E2AE
:1000E000FC01208385E290E02FEDFC01208385E474
:1000F00090E021E0FC0120838EE690E021E0FC010D
:0A01000020837894FFCFF894FFCF1E
:00000001FF
