:100000000C9434000C9453000C9469000C9451002F
:100010000C9451000C9451000C9451000C9451001C
:100020000C9451000C9451000C9451000C9451000C
:100030000C9451000C9451000C9451000C945100FC
:100040000C9451000C9451000C9451000C945100EC
:100050000C9451000C9451000C9451000C945100DC
:100060000C9451000C94510011241FBECFEFD8E026
:10007000DEBFCDBF11E0A0E0B1E0E4EAF1E002C0F4
:1000800005900D92AA30B107D9F721E0AAE0B1E0BE
:1000900001C01D92AD30B207E1F70E9489000C94B7
:1000A000D0000C9400001F920F920FB60F921124F3
:1000B0008F9380910B01813019F410920B0103C0D2
:1000C00081E080930B018F910F900FBE0F901F90D6
:1000D00018951F920F920FB60F9211248F93EF93E2
:1000E000FF9310920A0110920C018091000188B9CF
:1000F000E0910C010E2E000CFF0BE050FF4F8081B1
:1001000085B9FF91EF918F910F900FBE0F901F90C7
:1001100018951AB88CE08BB98FEF87B984B98AE04B
:100120008093690083E08DBB789481E080930B011C
:1001300010920A0110920C01E0910A010E2E000C9F
:10014000FF0BE050FF4F808188B9E0910C010E2E2B
:10015000000CFF0BE050FF4F808185B980910B01AF
:10016000813051F380910C01893024F48F5F8093AA
:100170000C010CC010920C0180910A01893024F40A
:100180008F5F80930A0102C010920A012FEF83ED66
:1001900090E3215080409040E1F700C00000CCCFB8
:0401A000F894FFCF01
:0A01A4007E306D79335B5F707F7B66
:00000001FF
