S0150000504344383534345F74657374652E73726563DF
S11300000C9424010C9441010C9441010C94410181
S11300100C9441010C9441010C9441010C94410154
S11300200C9441010C9441010C9441010C94410144
S11300300C9441010C9441010C9441010C94410134
S11300400C9441010C9441010C9441010C94410124
S11300500C9441010C9441010C9441010C94410114
S11300600C9441010C944101000000000000005F69
S113007000000007000700147F147F14242A7F2A3D
S11300801223130864623649552250000503000008
S1130090001C2241000041221C0014083E081408E0
S11300A0083E0808005030000008080808080060EE
S11300B060000020100804023E5149453E00427F82
S11300C0400042615149462141454B311814127F89
S11300D01027454545393C4A494930017109050312
S11300E03649494936064949291E0036360000007A
S11300F0563600000814224100141414141400414C
S11301002214080201510906324979413E7E111137
S1130110117E7F494949363E414141227F41412276
S11301201C7F494949417F090909013E4149497AEE
S11301307F0808087F00417F41002040413F017F44
S1130140081422417F404040407F020C027F7F041C
S113015008107F3E4141413E7F090909063E415155
S1130160215E7F09192946464949493101017F0128
S1130170013F4040403F1F2040201F3F4038403F48
S11301806314081463070870080761514945430064
S11301907F41410002040810200041417F00040215
S11301A00102044040404040000102040020545435
S11301B054787F48444438384444442038444448BC
S11301C07F3854545418087E0901020C5252523E8E
S11301D07F0804047800447D40002040443D007FB3
S11301E01028440000417F40007C041804787C08F7
S11301F004047838444444387C141414080814144F
S1130200187C7C080404084854545420043F444097
S1130210203C4040207C1C2040201C3C4030403C82
S113022044281028440C5050503C4464544C44001E
S11302300836410000007F00000041360800100825
S1130240081008000000000011241FBECFEFD8E002
S1130250DEBFCDBF11E0A0E0B1E0E2EFF5E002C007
S113026005900D92AC31B107D9F723E0ACE1B1E0D0
S113027001C01D92A631B207E1F70E9443010C941C
S1130280F7020C9400000E948C010E94CD0161E0F1
S113029080E091E00E94B9026AE080E00E94CC0212
S11302A063E08AE091E00E94B90268E280E00E9483
S11302B0CC0261E08FE091E00E94B9020E94D10279
S11302C02FEF83ED90E3215080409040E1F700C090
S11302D00000F6CF2998662311F02B9A15C02B98AD
S11302E013C0AC01022E02C0559547950A94E2F75B
S11302F040FF02C02C9A01C02C982D9A2D982150B1
S1130300310978F7299A089527E030E090E0E9CFA1
S113031060E00E946A010895CF93DF93219A229AA4
S1130320239A249A259A2A9A299A83EC99E0019788
S1130330F1F700C000002A988BE594E40197F1F7E7
S113034000C000002A9A299881E20E94880183E172
S11303500E94880186E00E94880182EC0E94880144
S113036080E20E94880189E00E94880180E80E945E
S1130370880180E40E948801C8EFD1E061E080E058
S11303800E946A012197D1F788E00E9488018CE0DD
S11303900E948801DF91CF91089580E80E9488012E
S11303A080E40E9488011092140310921503ECE17A
S11303B0F1E084E193E01192E817F907E1F7089579
S11303C0262F26952695269590E034E5239F800DCB
S11303D0911D1124442379F0FC01E45EFE4F677003
S11303E081E090E002C0880F991F6A95E2F790813E
S11303F0892B80830895FC01E45EFE4F677081E0E1
S113040090E002C0880F991F6A95E2F78095908169
S11304108923808308955F926F927F928F929F9237
S1130420AF92BF92CF92DF92EF92FF920F931F93FE
S1130430CF93DF93562E262F30E04901880C991C68
S1130440880C991C820E931E181419040CF05DC0BC
S11304508901000F111F000F111F000F111F021B34
S1130460130B612CA82EB12CC50180975C01AA0C3A
S1130470BB1CAA0CBB1CA80EB91E0F2EF5E1CF2E77
S1130480F3E0DF2EF02D0F2EF4E1EF2EF3E0FF2E3C
S1130490F02D2DC0FE01249130E0872D652D0E94A2
S11304A0EB0202C0359527958A95E2F720FF0AC032
S11304B0F6016081670DF701808141E0860D0E949D
S11304C0E00109C0F6016081670DF701808140E019
S11304D0860D0E94E0017394872D90E080179107A8
S11304E0CCF26394862D90E08815990574F4101667
S11304F01106BCF7862D652D0E94EB02E501C80F9D
S1130500D11DC859DF4F712CC5CF8091140391E0E0
S1130510980F852D880F880F850D890F843518F461
S1130520809314030EC010921403E5E1F3E080817C
S113053091E0980F852D880F880F880F8519890FF2
S1130540808380911503803320F01092140310925D
S11305501503DF91CF911F910F91FF90EF90DF90E2
S1130560CF90BF90AF909F908F907F906F905F904F
S113057008951F93CF93DF93EC018881882341F082
S1130580162F2196612F0E940B0289918111FACFB7
S1130590DF91CF911F910895809314036093150305
S11305A008950F931F93CF93DF9380E80E948801EF
S11305B080E40E948801CCE1D1E004E113E061E031
S11305C089910E946A01C017D107C9F7DF91CF91C1
S11305D01F910F910895991B79E004C0991F9617F4
S11305E008F0961B881F7A95C9F780950895F894AA
S10505F0FFCF37
S11305F2554643472032303230004C415344005078
S10F0602726F662E2052616661656C0008
S9030000FC
