S00C00004750494F2E73726563E9
S11300000C9434000C943E000C943E000C943E007E
S11300100C943E000C943E000C943E000C943E0064
S11300200C943E000C943E000C943E000C943E0054
S11300300C943E000C943E000C943E000C943E0044
S11300400C943E000C943E000C943E000C943E0034
S11300500C943E000C943E000C943E000C943E0024
S11300600C943E000C943E0011241FBECFEFD8E048
S1130070DEBFCDBF0E9440000C9467000C940000CA
S1130080CF93DF93CDB7DEB787E290E0FC018081A8
S113009087E290E02FEFFC0120838AE290E0FC01EC
S11300A080818AE290E0FC0110828BE290E02BE2F6
S11300B030E0F90120812160FC01208388E290E096
S11300C029E230E0F9012081FC012083F7CFF89484
S10500D0FFCF5C
S9030000FC
